{"contracts/Contract.sol":{"TransactionManager":{"abi":[{"inputs":[{"internalType":"string","name":"_transaction_code","type":"string"},{"internalType":"uint256","name":"_amount","type":"uint256"},{"internalType":"string","name":"_direction","type":"string"}],"name":"createTransaction","outputs":[],"stateMutability":"nonpayable","type":"function"},{"inputs":[],"name":"getAllTransactions","outputs":[{"components":[{"internalType":"string","name":"transaction_code","type":"string"},{"internalType":"uint256","name":"amount","type":"uint256"},{"internalType":"string","name":"direction","type":"string"},{"internalType":"uint256","name":"datetime","type":"uint256"}],"internalType":"struct TransactionManager.Transaction[]","name":"","type":"tuple[]"}],"stateMutability":"view","type":"function"},{"inputs":[{"internalType":"uint256","name":"","type":"uint256"}],"name":"transactions","outputs":[{"internalType":"string","name":"transaction_code","type":"string"},{"internalType":"uint256","name":"amount","type":"uint256"},{"internalType":"string","name":"direction","type":"string"},{"internalType":"uint256","name":"datetime","type":"uint256"}],"stateMutability":"view","type":"function"}],"evm":{"bytecode":{"linkReferences":{},"object":"6080604052348015600f57600080fd5b50610c118061001f6000396000f3fe608060405234801561001057600080fd5b50600436106100415760003560e01c806327506f531461004657806396c85572146100645780639ace38c214610080575b600080fd5b61004e6100b3565b60405161005b9190610602565b60405180910390f35b61007e60048036038101906100799190610799565b61024a565b005b61009a60048036038101906100959190610824565b6102dd565b6040516100aa94939291906108aa565b60405180910390f35b60606000805480602002602001604051908101604052809291908181526020016000905b82821015610241578382906000526020600020906004020160405180608001604052908160008201805461010a9061092c565b80601f01602080910402602001604051908101604052809291908181526020018280546101369061092c565b80156101835780601f1061015857610100808354040283529160200191610183565b820191906000526020600020905b81548152906001019060200180831161016657829003601f168201915b50505050508152602001600182015481526020016002820180546101a69061092c565b80601f01602080910402602001604051908101604052809291908181526020018280546101d29061092c565b801561021f5780601f106101f45761010080835404028352916020019161021f565b820191906000526020600020905b81548152906001019060200180831161020257829003601f168201915b50505050508152602001600382015481525050815260200190600101906100d7565b50505050905090565b6000604051806080016040528085815260200184815260200183815260200142815250908060018154018082558091505060019003906000526020600020906004020160009091909190915060008201518160000190816102ab9190610b09565b506020820151816001015560408201518160020190816102cb9190610b09565b50606082015181600301555050505050565b600081815481106102ed57600080fd5b90600052602060002090600402016000915090508060000180546103109061092c565b80601f016020809104026020016040519081016040528092919081815260200182805461033c9061092c565b80156103895780601f1061035e57610100808354040283529160200191610389565b820191906000526020600020905b81548152906001019060200180831161036c57829003601f168201915b5050505050908060010154908060020180546103a49061092c565b80601f01602080910402602001604051908101604052809291908181526020018280546103d09061092c565b801561041d5780601f106103f25761010080835404028352916020019161041d565b820191906000526020600020905b81548152906001019060200180831161040057829003601f168201915b5050505050908060030154905084565b600081519050919050565b600082825260208201905092915050565b6000819050602082019050919050565b600081519050919050565b600082825260208201905092915050565b60005b83811015610493578082015181840152602081019050610478565b60008484015250505050565b6000601f19601f8301169050919050565b60006104bb82610459565b6104c58185610464565b93506104d5818560208601610475565b6104de8161049f565b840191505092915050565b6000819050919050565b6104fc816104e9565b82525050565b6000608083016000830151848203600086015261051f82826104b0565b915050602083015161053460208601826104f3565b506040830151848203604086015261054c82826104b0565b915050606083015161056160608601826104f3565b508091505092915050565b60006105788383610502565b905092915050565b6000602082019050919050565b60006105988261042d565b6105a28185610438565b9350836020820285016105b485610449565b8060005b858110156105f057848403895281516105d1858261056c565b94506105dc83610580565b925060208a019950506001810190506105b8565b50829750879550505050505092915050565b6000602082019050818103600083015261061c818461058d565b905092915050565b6000604051905090565b600080fd5b600080fd5b600080fd5b600080fd5b7f4e487b7100000000000000000000000000000000000000000000000000000000600052604160045260246000fd5b61067a8261049f565b810181811067ffffffffffffffff8211171561069957610698610642565b5b80604052505050565b60006106ac610624565b90506106b88282610671565b919050565b600067ffffffffffffffff8211156106d8576106d7610642565b5b6106e18261049f565b9050602081019050919050565b82818337600083830152505050565b600061071061070b846106bd565b6106a2565b90508281526020810184848401111561072c5761072b61063d565b5b6107378482856106ee565b509392505050565b600082601f83011261075457610753610638565b5b81356107648482602086016106fd565b91505092915050565b610776816104e9565b811461078157600080fd5b50565b6000813590506107938161076d565b92915050565b6000806000606084860312156107b2576107b161062e565b5b600084013567ffffffffffffffff8111156107d0576107cf610633565b5b6107dc8682870161073f565b93505060206107ed86828701610784565b925050604084013567ffffffffffffffff81111561080e5761080d610633565b5b61081a8682870161073f565b9150509250925092565b60006020828403121561083a5761083961062e565b5b600061084884828501610784565b91505092915050565b600082825260208201905092915050565b600061086d82610459565b6108778185610851565b9350610887818560208601610475565b6108908161049f565b840191505092915050565b6108a4816104e9565b82525050565b600060808201905081810360008301526108c48187610862565b90506108d3602083018661089b565b81810360408301526108e58185610862565b90506108f4606083018461089b565b95945050505050565b7f4e487b7100000000000000000000000000000000000000000000000000000000600052602260045260246000fd5b6000600282049050600182168061094457607f821691505b602082108103610957576109566108fd565b5b50919050565b60008190508160005260206000209050919050565b60006020601f8301049050919050565b600082821b905092915050565b6000600883026109bf7fffffffffffffffffffffffffffffffffffffffffffffffffffffffffffffffff82610982565b6109c98683610982565b95508019841693508086168417925050509392505050565b6000819050919050565b6000610a06610a016109fc846104e9565b6109e1565b6104e9565b9050919050565b6000819050919050565b610a20836109eb565b610a34610a2c82610a0d565b84845461098f565b825550505050565b600090565b610a49610a3c565b610a54818484610a17565b505050565b5b81811015610a7857610a6d600082610a41565b600181019050610a5a565b5050565b601f821115610abd57610a8e8161095d565b610a9784610972565b81016020851015610aa6578190505b610aba610ab285610972565b830182610a59565b50505b505050565b600082821c905092915050565b6000610ae060001984600802610ac2565b1980831691505092915050565b6000610af98383610acf565b9150826002028217905092915050565b610b1282610459565b67ffffffffffffffff811115610b2b57610b2a610642565b5b610b35825461092c565b610b40828285610a7c565b600060209050601f831160018114610b735760008415610b61578287015190505b610b6b8582610aed565b865550610bd3565b601f198416610b818661095d565b60005b82811015610ba957848901518255600182019150602085019450602081019050610b84565b86831015610bc65784890151610bc2601f891682610acf565b8355505b6001600288020188555050505b50505050505056fea2646970667358221220e6b3c8d18473249d1fa2bd3b6f2b147c204a5957bebd9c639182748faee6817a64736f6c634300081c0033","opcodes":"PUSH1 0x80 PUSH1 0x40 MSTORE CALLVALUE DUP1 ISZERO PUSH1 0xF JUMPI PUSH1 0x0 DUP1 REVERT JUMPDEST POP PUSH2 0xC11 DUP1 PUSH2 0x1F PUSH1 0x0 CODECOPY PUSH1 0x0 RETURN INVALID PUSH1 0x80 PUSH1 0x40 MSTORE CALLVALUE DUP1 ISZERO PUSH2 0x10 JUMPI PUSH1 0x0 DUP1 REVERT JUMPDEST POP PUSH1 0x4 CALLDATASIZE LT PUSH2 0x41 JUMPI PUSH1 0x0 CALLDATALOAD PUSH1 0xE0 SHR DUP1 PUSH4 0x27506F53 EQ PUSH2 0x46 JUMPI DUP1 PUSH4 0x96C85572 EQ PUSH2 0x64 JUMPI DUP1 PUSH4 0x9ACE38C2 EQ PUSH2 0x80 JUMPI JUMPDEST PUSH1 0x0 DUP1 REVERT JUMPDEST PUSH2 0x4E PUSH2 0xB3 JUMP JUMPDEST PUSH1 0x40 MLOAD PUSH2 0x5B SWAP2 SWAP1 PUSH2 0x602 JUMP JUMPDEST PUSH1 0x40 MLOAD DUP1 SWAP2 SUB SWAP1 RETURN JUMPDEST PUSH2 0x7E PUSH1 0x4 DUP1 CALLDATASIZE SUB DUP2 ADD SWAP1 PUSH2 0x79 SWAP2 SWAP1 PUSH2 0x799 JUMP JUMPDEST PUSH2 0x24A JUMP JUMPDEST STOP JUMPDEST PUSH2 0x9A PUSH1 0x4 DUP1 CALLDATASIZE SUB DUP2 ADD SWAP1 PUSH2 0x95 SWAP2 SWAP1 PUSH2 0x824 JUMP JUMPDEST PUSH2 0x2DD JUMP JUMPDEST PUSH1 0x40 MLOAD PUSH2 0xAA SWAP5 SWAP4 SWAP3 SWAP2 SWAP1 PUSH2 0x8AA JUMP JUMPDEST PUSH1 0x40 MLOAD DUP1 SWAP2 SUB SWAP1 RETURN JUMPDEST PUSH1 0x60 PUSH1 0x0 DUP1 SLOAD DUP1 PUSH1 0x20 MUL PUSH1 0x20 ADD PUSH1 0x40 MLOAD SWAP1 DUP2 ADD PUSH1 0x40 MSTORE DUP1 SWAP3 SWAP2 SWAP1 DUP2 DUP2 MSTORE PUSH1 0x20 ADD PUSH1 0x0 SWAP1 JUMPDEST DUP3 DUP3 LT ISZERO PUSH2 0x241 JUMPI DUP4 DUP3 SWAP1 PUSH1 0x0 MSTORE PUSH1 0x20 PUSH1 0x0 KECCAK256 SWAP1 PUSH1 0x4 MUL ADD PUSH1 0x40 MLOAD DUP1 PUSH1 0x80 ADD PUSH1 0x40 MSTORE SWAP1 DUP2 PUSH1 0x0 DUP3 ADD DUP1 SLOAD PUSH2 0x10A SWAP1 PUSH2 0x92C JUMP JUMPDEST DUP1 PUSH1 0x1F ADD PUSH1 0x20 DUP1 SWAP2 DIV MUL PUSH1 0x20 ADD PUSH1 0x40 MLOAD SWAP1 DUP2 ADD PUSH1 0x40 MSTORE DUP1 SWAP3 SWAP2 SWAP1 DUP2 DUP2 MSTORE PUSH1 0x20 ADD DUP3 DUP1 SLOAD PUSH2 0x136 SWAP1 PUSH2 0x92C JUMP JUMPDEST DUP1 ISZERO PUSH2 0x183 JUMPI DUP1 PUSH1 0x1F LT PUSH2 0x158 JUMPI PUSH2 0x100 DUP1 DUP4 SLOAD DIV MUL DUP4 MSTORE SWAP2 PUSH1 0x20 ADD SWAP2 PUSH2 0x183 JUMP JUMPDEST DUP3 ADD SWAP2 SWAP1 PUSH1 0x0 MSTORE PUSH1 0x20 PUSH1 0x0 KECCAK256 SWAP1 JUMPDEST DUP2 SLOAD DUP2 MSTORE SWAP1 PUSH1 0x1 ADD SWAP1 PUSH1 0x20 ADD DUP1 DUP4 GT PUSH2 0x166 JUMPI DUP3 SWAP1 SUB PUSH1 0x1F AND DUP3 ADD SWAP2 JUMPDEST POP POP POP POP POP DUP2 MSTORE PUSH1 0x20 ADD PUSH1 0x1 DUP3 ADD SLOAD DUP2 MSTORE PUSH1 0x20 ADD PUSH1 0x2 DUP3 ADD DUP1 SLOAD PUSH2 0x1A6 SWAP1 PUSH2 0x92C JUMP JUMPDEST DUP1 PUSH1 0x1F ADD PUSH1 0x20 DUP1 SWAP2 DIV MUL PUSH1 0x20 ADD PUSH1 0x40 MLOAD SWAP1 DUP2 ADD PUSH1 0x40 MSTORE DUP1 SWAP3 SWAP2 SWAP1 DUP2 DUP2 MSTORE PUSH1 0x20 ADD DUP3 DUP1 SLOAD PUSH2 0x1D2 SWAP1 PUSH2 0x92C JUMP JUMPDEST DUP1 ISZERO PUSH2 0x21F JUMPI DUP1 PUSH1 0x1F LT PUSH2 0x1F4 JUMPI PUSH2 0x100 DUP1 DUP4 SLOAD DIV MUL DUP4 MSTORE SWAP2 PUSH1 0x20 ADD SWAP2 PUSH2 0x21F JUMP JUMPDEST DUP3 ADD SWAP2 SWAP1 PUSH1 0x0 MSTORE PUSH1 0x20 PUSH1 0x0 KECCAK256 SWAP1 JUMPDEST DUP2 SLOAD DUP2 MSTORE SWAP1 PUSH1 0x1 ADD SWAP1 PUSH1 0x20 ADD DUP1 DUP4 GT PUSH2 0x202 JUMPI DUP3 SWAP1 SUB PUSH1 0x1F AND DUP3 ADD SWAP2 JUMPDEST POP POP POP POP POP DUP2 MSTORE PUSH1 0x20 ADD PUSH1 0x3 DUP3 ADD SLOAD DUP2 MSTORE POP POP DUP2 MSTORE PUSH1 0x20 ADD SWAP1 PUSH1 0x1 ADD SWAP1 PUSH2 0xD7 JUMP JUMPDEST POP POP POP POP SWAP1 POP SWAP1 JUMP JUMPDEST PUSH1 0x0 PUSH1 0x40 MLOAD DUP1 PUSH1 0x80 ADD PUSH1 0x40 MSTORE DUP1 DUP6 DUP2 MSTORE PUSH1 0x20 ADD DUP5 DUP2 MSTORE PUSH1 0x20 ADD DUP4 DUP2 MSTORE PUSH1 0x20 ADD TIMESTAMP DUP2 MSTORE POP SWAP1 DUP1 PUSH1 0x1 DUP2 SLOAD ADD DUP1 DUP3 SSTORE DUP1 SWAP2 POP POP PUSH1 0x1 SWAP1 SUB SWAP1 PUSH1 0x0 MSTORE PUSH1 0x20 PUSH1 0x0 KECCAK256 SWAP1 PUSH1 0x4 MUL ADD PUSH1 0x0 SWAP1 SWAP2 SWAP1 SWAP2 SWAP1 SWAP2 POP PUSH1 0x0 DUP3 ADD MLOAD DUP2 PUSH1 0x0 ADD SWAP1 DUP2 PUSH2 0x2AB SWAP2 SWAP1 PUSH2 0xB09 JUMP JUMPDEST POP PUSH1 0x20 DUP3 ADD MLOAD DUP2 PUSH1 0x1 ADD SSTORE PUSH1 0x40 DUP3 ADD MLOAD DUP2 PUSH1 0x2 ADD SWAP1 DUP2 PUSH2 0x2CB SWAP2 SWAP1 PUSH2 0xB09 JUMP JUMPDEST POP PUSH1 0x60 DUP3 ADD MLOAD DUP2 PUSH1 0x3 ADD SSTORE POP POP POP POP POP JUMP JUMPDEST PUSH1 0x0 DUP2 DUP2 SLOAD DUP2 LT PUSH2 0x2ED JUMPI PUSH1 0x0 DUP1 REVERT JUMPDEST SWAP1 PUSH1 0x0 MSTORE PUSH1 0x20 PUSH1 0x0 KECCAK256 SWAP1 PUSH1 0x4 MUL ADD PUSH1 0x0 SWAP2 POP SWAP1 POP DUP1 PUSH1 0x0 ADD DUP1 SLOAD PUSH2 0x310 SWAP1 PUSH2 0x92C JUMP JUMPDEST DUP1 PUSH1 0x1F ADD PUSH1 0x20 DUP1 SWAP2 DIV MUL PUSH1 0x20 ADD PUSH1 0x40 MLOAD SWAP1 DUP2 ADD PUSH1 0x40 MSTORE DUP1 SWAP3 SWAP2 SWAP1 DUP2 DUP2 MSTORE PUSH1 0x20 ADD DUP3 DUP1 SLOAD PUSH2 0x33C SWAP1 PUSH2 0x92C JUMP JUMPDEST DUP1 ISZERO PUSH2 0x389 JUMPI DUP1 PUSH1 0x1F LT PUSH2 0x35E JUMPI PUSH2 0x100 DUP1 DUP4 SLOAD DIV MUL DUP4 MSTORE SWAP2 PUSH1 0x20 ADD SWAP2 PUSH2 0x389 JUMP JUMPDEST DUP3 ADD SWAP2 SWAP1 PUSH1 0x0 MSTORE PUSH1 0x20 PUSH1 0x0 KECCAK256 SWAP1 JUMPDEST DUP2 SLOAD DUP2 MSTORE SWAP1 PUSH1 0x1 ADD SWAP1 PUSH1 0x20 ADD DUP1 DUP4 GT PUSH2 0x36C JUMPI DUP3 SWAP1 SUB PUSH1 0x1F AND DUP3 ADD SWAP2 JUMPDEST POP POP POP POP POP SWAP1 DUP1 PUSH1 0x1 ADD SLOAD SWAP1 DUP1 PUSH1 0x2 ADD DUP1 SLOAD PUSH2 0x3A4 SWAP1 PUSH2 0x92C JUMP JUMPDEST DUP1 PUSH1 0x1F ADD PUSH1 0x20 DUP1 SWAP2 DIV MUL PUSH1 0x20 ADD PUSH1 0x40 MLOAD SWAP1 DUP2 ADD PUSH1 0x40 MSTORE DUP1 SWAP3 SWAP2 SWAP1 DUP2 DUP2 MSTORE PUSH1 0x20 ADD DUP3 DUP1 SLOAD PUSH2 0x3D0 SWAP1 PUSH2 0x92C JUMP JUMPDEST DUP1 ISZERO PUSH2 0x41D JUMPI DUP1 PUSH1 0x1F LT PUSH2 0x3F2 JUMPI PUSH2 0x100 DUP1 DUP4 SLOAD DIV MUL DUP4 MSTORE SWAP2 PUSH1 0x20 ADD SWAP2 PUSH2 0x41D JUMP JUMPDEST DUP3 ADD SWAP2 SWAP1 PUSH1 0x0 MSTORE PUSH1 0x20 PUSH1 0x0 KECCAK256 SWAP1 JUMPDEST DUP2 SLOAD DUP2 MSTORE SWAP1 PUSH1 0x1 ADD SWAP1 PUSH1 0x20 ADD DUP1 DUP4 GT PUSH2 0x400 JUMPI DUP3 SWAP1 SUB PUSH1 0x1F AND DUP3 ADD SWAP2 JUMPDEST POP POP POP POP POP SWAP1 DUP1 PUSH1 0x3 ADD SLOAD SWAP1 POP DUP5 JUMP JUMPDEST PUSH1 0x0 DUP2 MLOAD SWAP1 POP SWAP2 SWAP1 POP JUMP JUMPDEST PUSH1 0x0 DUP3 DUP3 MSTORE PUSH1 0x20 DUP3 ADD SWAP1 POP SWAP3 SWAP2 POP POP JUMP JUMPDEST PUSH1 0x0 DUP2 SWAP1 POP PUSH1 0x20 DUP3 ADD SWAP1 POP SWAP2 SWAP1 POP JUMP JUMPDEST PUSH1 0x0 DUP2 MLOAD SWAP1 POP SWAP2 SWAP1 POP JUMP JUMPDEST PUSH1 0x0 DUP3 DUP3 MSTORE PUSH1 0x20 DUP3 ADD SWAP1 POP SWAP3 SWAP2 POP POP JUMP JUMPDEST PUSH1 0x0 JUMPDEST DUP4 DUP2 LT ISZERO PUSH2 0x493 JUMPI DUP1 DUP3 ADD MLOAD DUP2 DUP5 ADD MSTORE PUSH1 0x20 DUP2 ADD SWAP1 POP PUSH2 0x478 JUMP JUMPDEST PUSH1 0x0 DUP5 DUP5 ADD MSTORE POP POP POP POP JUMP JUMPDEST PUSH1 0x0 PUSH1 0x1F NOT PUSH1 0x1F DUP4 ADD AND SWAP1 POP SWAP2 SWAP1 POP JUMP JUMPDEST PUSH1 0x0 PUSH2 0x4BB DUP3 PUSH2 0x459 JUMP JUMPDEST PUSH2 0x4C5 DUP2 DUP6 PUSH2 0x464 JUMP JUMPDEST SWAP4 POP PUSH2 0x4D5 DUP2 DUP6 PUSH1 0x20 DUP7 ADD PUSH2 0x475 JUMP JUMPDEST PUSH2 0x4DE DUP2 PUSH2 0x49F JUMP JUMPDEST DUP5 ADD SWAP2 POP POP SWAP3 SWAP2 POP POP JUMP JUMPDEST PUSH1 0x0 DUP2 SWAP1 POP SWAP2 SWAP1 POP JUMP JUMPDEST PUSH2 0x4FC DUP2 PUSH2 0x4E9 JUMP JUMPDEST DUP3 MSTORE POP POP JUMP JUMPDEST PUSH1 0x0 PUSH1 0x80 DUP4 ADD PUSH1 0x0 DUP4 ADD MLOAD DUP5 DUP3 SUB PUSH1 0x0 DUP7 ADD MSTORE PUSH2 0x51F DUP3 DUP3 PUSH2 0x4B0 JUMP JUMPDEST SWAP2 POP POP PUSH1 0x20 DUP4 ADD MLOAD PUSH2 0x534 PUSH1 0x20 DUP7 ADD DUP3 PUSH2 0x4F3 JUMP JUMPDEST POP PUSH1 0x40 DUP4 ADD MLOAD DUP5 DUP3 SUB PUSH1 0x40 DUP7 ADD MSTORE PUSH2 0x54C DUP3 DUP3 PUSH2 0x4B0 JUMP JUMPDEST SWAP2 POP POP PUSH1 0x60 DUP4 ADD MLOAD PUSH2 0x561 PUSH1 0x60 DUP7 ADD DUP3 PUSH2 0x4F3 JUMP JUMPDEST POP DUP1 SWAP2 POP POP SWAP3 SWAP2 POP POP JUMP JUMPDEST PUSH1 0x0 PUSH2 0x578 DUP4 DUP4 PUSH2 0x502 JUMP JUMPDEST SWAP1 POP SWAP3 SWAP2 POP POP JUMP JUMPDEST PUSH1 0x0 PUSH1 0x20 DUP3 ADD SWAP1 POP SWAP2 SWAP1 POP JUMP JUMPDEST PUSH1 0x0 PUSH2 0x598 DUP3 PUSH2 0x42D JUMP JUMPDEST PUSH2 0x5A2 DUP2 DUP6 PUSH2 0x438 JUMP JUMPDEST SWAP4 POP DUP4 PUSH1 0x20 DUP3 MUL DUP6 ADD PUSH2 0x5B4 DUP6 PUSH2 0x449 JUMP JUMPDEST DUP1 PUSH1 0x0 JUMPDEST DUP6 DUP2 LT ISZERO PUSH2 0x5F0 JUMPI DUP5 DUP5 SUB DUP10 MSTORE DUP2 MLOAD PUSH2 0x5D1 DUP6 DUP3 PUSH2 0x56C JUMP JUMPDEST SWAP5 POP PUSH2 0x5DC DUP4 PUSH2 0x580 JUMP JUMPDEST SWAP3 POP PUSH1 0x20 DUP11 ADD SWAP10 POP POP PUSH1 0x1 DUP2 ADD SWAP1 POP PUSH2 0x5B8 JUMP JUMPDEST POP DUP3 SWAP8 POP DUP8 SWAP6 POP POP POP POP POP POP SWAP3 SWAP2 POP POP JUMP JUMPDEST PUSH1 0x0 PUSH1 0x20 DUP3 ADD SWAP1 POP DUP2 DUP2 SUB PUSH1 0x0 DUP4 ADD MSTORE PUSH2 0x61C DUP2 DUP5 PUSH2 0x58D JUMP JUMPDEST SWAP1 POP SWAP3 SWAP2 POP POP JUMP JUMPDEST PUSH1 0x0 PUSH1 0x40 MLOAD SWAP1 POP SWAP1 JUMP JUMPDEST PUSH1 0x0 DUP1 REVERT JUMPDEST PUSH1 0x0 DUP1 REVERT JUMPDEST PUSH1 0x0 DUP1 REVERT JUMPDEST PUSH1 0x0 DUP1 REVERT JUMPDEST PUSH32 0x4E487B7100000000000000000000000000000000000000000000000000000000 PUSH1 0x0 MSTORE PUSH1 0x41 PUSH1 0x4 MSTORE PUSH1 0x24 PUSH1 0x0 REVERT JUMPDEST PUSH2 0x67A DUP3 PUSH2 0x49F JUMP JUMPDEST DUP2 ADD DUP2 DUP2 LT PUSH8 0xFFFFFFFFFFFFFFFF DUP3 GT OR ISZERO PUSH2 0x699 JUMPI PUSH2 0x698 PUSH2 0x642 JUMP JUMPDEST JUMPDEST DUP1 PUSH1 0x40 MSTORE POP POP POP JUMP JUMPDEST PUSH1 0x0 PUSH2 0x6AC PUSH2 0x624 JUMP JUMPDEST SWAP1 POP PUSH2 0x6B8 DUP3 DUP3 PUSH2 0x671 JUMP JUMPDEST SWAP2 SWAP1 POP JUMP JUMPDEST PUSH1 0x0 PUSH8 0xFFFFFFFFFFFFFFFF DUP3 GT ISZERO PUSH2 0x6D8 JUMPI PUSH2 0x6D7 PUSH2 0x642 JUMP JUMPDEST JUMPDEST PUSH2 0x6E1 DUP3 PUSH2 0x49F JUMP JUMPDEST SWAP1 POP PUSH1 0x20 DUP2 ADD SWAP1 POP SWAP2 SWAP1 POP JUMP JUMPDEST DUP3 DUP2 DUP4 CALLDATACOPY PUSH1 0x0 DUP4 DUP4 ADD MSTORE POP POP POP JUMP JUMPDEST PUSH1 0x0 PUSH2 0x710 PUSH2 0x70B DUP5 PUSH2 0x6BD JUMP JUMPDEST PUSH2 0x6A2 JUMP JUMPDEST SWAP1 POP DUP3 DUP2 MSTORE PUSH1 0x20 DUP2 ADD DUP5 DUP5 DUP5 ADD GT ISZERO PUSH2 0x72C JUMPI PUSH2 0x72B PUSH2 0x63D JUMP JUMPDEST JUMPDEST PUSH2 0x737 DUP5 DUP3 DUP6 PUSH2 0x6EE JUMP JUMPDEST POP SWAP4 SWAP3 POP POP POP JUMP JUMPDEST PUSH1 0x0 DUP3 PUSH1 0x1F DUP4 ADD SLT PUSH2 0x754 JUMPI PUSH2 0x753 PUSH2 0x638 JUMP JUMPDEST JUMPDEST DUP2 CALLDATALOAD PUSH2 0x764 DUP5 DUP3 PUSH1 0x20 DUP7 ADD PUSH2 0x6FD JUMP JUMPDEST SWAP2 POP POP SWAP3 SWAP2 POP POP JUMP JUMPDEST PUSH2 0x776 DUP2 PUSH2 0x4E9 JUMP JUMPDEST DUP2 EQ PUSH2 0x781 JUMPI PUSH1 0x0 DUP1 REVERT JUMPDEST POP JUMP JUMPDEST PUSH1 0x0 DUP2 CALLDATALOAD SWAP1 POP PUSH2 0x793 DUP2 PUSH2 0x76D JUMP JUMPDEST SWAP3 SWAP2 POP POP JUMP JUMPDEST PUSH1 0x0 DUP1 PUSH1 0x0 PUSH1 0x60 DUP5 DUP7 SUB SLT ISZERO PUSH2 0x7B2 JUMPI PUSH2 0x7B1 PUSH2 0x62E JUMP JUMPDEST JUMPDEST PUSH1 0x0 DUP5 ADD CALLDATALOAD PUSH8 0xFFFFFFFFFFFFFFFF DUP2 GT ISZERO PUSH2 0x7D0 JUMPI PUSH2 0x7CF PUSH2 0x633 JUMP JUMPDEST JUMPDEST PUSH2 0x7DC DUP7 DUP3 DUP8 ADD PUSH2 0x73F JUMP JUMPDEST SWAP4 POP POP PUSH1 0x20 PUSH2 0x7ED DUP7 DUP3 DUP8 ADD PUSH2 0x784 JUMP JUMPDEST SWAP3 POP POP PUSH1 0x40 DUP5 ADD CALLDATALOAD PUSH8 0xFFFFFFFFFFFFFFFF DUP2 GT ISZERO PUSH2 0x80E JUMPI PUSH2 0x80D PUSH2 0x633 JUMP JUMPDEST JUMPDEST PUSH2 0x81A DUP7 DUP3 DUP8 ADD PUSH2 0x73F JUMP JUMPDEST SWAP2 POP POP SWAP3 POP SWAP3 POP SWAP3 JUMP JUMPDEST PUSH1 0x0 PUSH1 0x20 DUP3 DUP5 SUB SLT ISZERO PUSH2 0x83A JUMPI PUSH2 0x839 PUSH2 0x62E JUMP JUMPDEST JUMPDEST PUSH1 0x0 PUSH2 0x848 DUP5 DUP3 DUP6 ADD PUSH2 0x784 JUMP JUMPDEST SWAP2 POP POP SWAP3 SWAP2 POP POP JUMP JUMPDEST PUSH1 0x0 DUP3 DUP3 MSTORE PUSH1 0x20 DUP3 ADD SWAP1 POP SWAP3 SWAP2 POP POP JUMP JUMPDEST PUSH1 0x0 PUSH2 0x86D DUP3 PUSH2 0x459 JUMP JUMPDEST PUSH2 0x877 DUP2 DUP6 PUSH2 0x851 JUMP JUMPDEST SWAP4 POP PUSH2 0x887 DUP2 DUP6 PUSH1 0x20 DUP7 ADD PUSH2 0x475 JUMP JUMPDEST PUSH2 0x890 DUP2 PUSH2 0x49F JUMP JUMPDEST DUP5 ADD SWAP2 POP POP SWAP3 SWAP2 POP POP JUMP JUMPDEST PUSH2 0x8A4 DUP2 PUSH2 0x4E9 JUMP JUMPDEST DUP3 MSTORE POP POP JUMP JUMPDEST PUSH1 0x0 PUSH1 0x80 DUP3 ADD SWAP1 POP DUP2 DUP2 SUB PUSH1 0x0 DUP4 ADD MSTORE PUSH2 0x8C4 DUP2 DUP8 PUSH2 0x862 JUMP JUMPDEST SWAP1 POP PUSH2 0x8D3 PUSH1 0x20 DUP4 ADD DUP7 PUSH2 0x89B JUMP JUMPDEST DUP2 DUP2 SUB PUSH1 0x40 DUP4 ADD MSTORE PUSH2 0x8E5 DUP2 DUP6 PUSH2 0x862 JUMP JUMPDEST SWAP1 POP PUSH2 0x8F4 PUSH1 0x60 DUP4 ADD DUP5 PUSH2 0x89B JUMP JUMPDEST SWAP6 SWAP5 POP POP POP POP POP JUMP JUMPDEST PUSH32 0x4E487B7100000000000000000000000000000000000000000000000000000000 PUSH1 0x0 MSTORE PUSH1 0x22 PUSH1 0x4 MSTORE PUSH1 0x24 PUSH1 0x0 REVERT JUMPDEST PUSH1 0x0 PUSH1 0x2 DUP3 DIV SWAP1 POP PUSH1 0x1 DUP3 AND DUP1 PUSH2 0x944 JUMPI PUSH1 0x7F DUP3 AND SWAP2 POP JUMPDEST PUSH1 0x20 DUP3 LT DUP2 SUB PUSH2 0x957 JUMPI PUSH2 0x956 PUSH2 0x8FD JUMP JUMPDEST JUMPDEST POP SWAP2 SWAP1 POP JUMP JUMPDEST PUSH1 0x0 DUP2 SWAP1 POP DUP2 PUSH1 0x0 MSTORE PUSH1 0x20 PUSH1 0x0 KECCAK256 SWAP1 POP SWAP2 SWAP1 POP JUMP JUMPDEST PUSH1 0x0 PUSH1 0x20 PUSH1 0x1F DUP4 ADD DIV SWAP1 POP SWAP2 SWAP1 POP JUMP JUMPDEST PUSH1 0x0 DUP3 DUP3 SHL SWAP1 POP SWAP3 SWAP2 POP POP JUMP JUMPDEST PUSH1 0x0 PUSH1 0x8 DUP4 MUL PUSH2 0x9BF PUSH32 0xFFFFFFFFFFFFFFFFFFFFFFFFFFFFFFFFFFFFFFFFFFFFFFFFFFFFFFFFFFFFFFFF DUP3 PUSH2 0x982 JUMP JUMPDEST PUSH2 0x9C9 DUP7 DUP4 PUSH2 0x982 JUMP JUMPDEST SWAP6 POP DUP1 NOT DUP5 AND SWAP4 POP DUP1 DUP7 AND DUP5 OR SWAP3 POP POP POP SWAP4 SWAP3 POP POP POP JUMP JUMPDEST PUSH1 0x0 DUP2 SWAP1 POP SWAP2 SWAP1 POP JUMP JUMPDEST PUSH1 0x0 PUSH2 0xA06 PUSH2 0xA01 PUSH2 0x9FC DUP5 PUSH2 0x4E9 JUMP JUMPDEST PUSH2 0x9E1 JUMP JUMPDEST PUSH2 0x4E9 JUMP JUMPDEST SWAP1 POP SWAP2 SWAP1 POP JUMP JUMPDEST PUSH1 0x0 DUP2 SWAP1 POP SWAP2 SWAP1 POP JUMP JUMPDEST PUSH2 0xA20 DUP4 PUSH2 0x9EB JUMP JUMPDEST PUSH2 0xA34 PUSH2 0xA2C DUP3 PUSH2 0xA0D JUMP JUMPDEST DUP5 DUP5 SLOAD PUSH2 0x98F JUMP JUMPDEST DUP3 SSTORE POP POP POP POP JUMP JUMPDEST PUSH1 0x0 SWAP1 JUMP JUMPDEST PUSH2 0xA49 PUSH2 0xA3C JUMP JUMPDEST PUSH2 0xA54 DUP2 DUP5 DUP5 PUSH2 0xA17 JUMP JUMPDEST POP POP POP JUMP JUMPDEST JUMPDEST DUP2 DUP2 LT ISZERO PUSH2 0xA78 JUMPI PUSH2 0xA6D PUSH1 0x0 DUP3 PUSH2 0xA41 JUMP JUMPDEST PUSH1 0x1 DUP2 ADD SWAP1 POP PUSH2 0xA5A JUMP JUMPDEST POP POP JUMP JUMPDEST PUSH1 0x1F DUP3 GT ISZERO PUSH2 0xABD JUMPI PUSH2 0xA8E DUP2 PUSH2 0x95D JUMP JUMPDEST PUSH2 0xA97 DUP5 PUSH2 0x972 JUMP JUMPDEST DUP2 ADD PUSH1 0x20 DUP6 LT ISZERO PUSH2 0xAA6 JUMPI DUP2 SWAP1 POP JUMPDEST PUSH2 0xABA PUSH2 0xAB2 DUP6 PUSH2 0x972 JUMP JUMPDEST DUP4 ADD DUP3 PUSH2 0xA59 JUMP JUMPDEST POP POP JUMPDEST POP POP POP JUMP JUMPDEST PUSH1 0x0 DUP3 DUP3 SHR SWAP1 POP SWAP3 SWAP2 POP POP JUMP JUMPDEST PUSH1 0x0 PUSH2 0xAE0 PUSH1 0x0 NOT DUP5 PUSH1 0x8 MUL PUSH2 0xAC2 JUMP JUMPDEST NOT DUP1 DUP4 AND SWAP2 POP POP SWAP3 SWAP2 POP POP JUMP JUMPDEST PUSH1 0x0 PUSH2 0xAF9 DUP4 DUP4 PUSH2 0xACF JUMP JUMPDEST SWAP2 POP DUP3 PUSH1 0x2 MUL DUP3 OR SWAP1 POP SWAP3 SWAP2 POP POP JUMP JUMPDEST PUSH2 0xB12 DUP3 PUSH2 0x459 JUMP JUMPDEST PUSH8 0xFFFFFFFFFFFFFFFF DUP2 GT ISZERO PUSH2 0xB2B JUMPI PUSH2 0xB2A PUSH2 0x642 JUMP JUMPDEST JUMPDEST PUSH2 0xB35 DUP3 SLOAD PUSH2 0x92C JUMP JUMPDEST PUSH2 0xB40 DUP3 DUP3 DUP6 PUSH2 0xA7C JUMP JUMPDEST PUSH1 0x0 PUSH1 0x20 SWAP1 POP PUSH1 0x1F DUP4 GT PUSH1 0x1 DUP2 EQ PUSH2 0xB73 JUMPI PUSH1 0x0 DUP5 ISZERO PUSH2 0xB61 JUMPI DUP3 DUP8 ADD MLOAD SWAP1 POP JUMPDEST PUSH2 0xB6B DUP6 DUP3 PUSH2 0xAED JUMP JUMPDEST DUP7 SSTORE POP PUSH2 0xBD3 JUMP JUMPDEST PUSH1 0x1F NOT DUP5 AND PUSH2 0xB81 DUP7 PUSH2 0x95D JUMP JUMPDEST PUSH1 0x0 JUMPDEST DUP3 DUP2 LT ISZERO PUSH2 0xBA9 JUMPI DUP5 DUP10 ADD MLOAD DUP3 SSTORE PUSH1 0x1 DUP3 ADD SWAP2 POP PUSH1 0x20 DUP6 ADD SWAP5 POP PUSH1 0x20 DUP2 ADD SWAP1 POP PUSH2 0xB84 JUMP JUMPDEST DUP7 DUP4 LT ISZERO PUSH2 0xBC6 JUMPI DUP5 DUP10 ADD MLOAD PUSH2 0xBC2 PUSH1 0x1F DUP10 AND DUP3 PUSH2 0xACF JUMP JUMPDEST DUP4 SSTORE POP JUMPDEST PUSH1 0x1 PUSH1 0x2 DUP9 MUL ADD DUP9 SSTORE POP POP POP JUMPDEST POP POP POP POP POP POP JUMP INVALID LOG2 PUSH5 0x6970667358 0x22 SLT KECCAK256 0xE6 0xB3 0xC8 0xD1 DUP5 PUSH20 0x249D1FA2BD3B6F2B147C204A5957BEBD9C639182 PUSH21 0x8FAEE6817A64736F6C634300081C00330000000000 "},"methodIdentifiers":{"createTransaction(string,uint256,string)":"96c85572","getAllTransactions()":"27506f53","transactions(uint256)":"9ace38c2"}}}}}