{
  "_format": "hh-sol-artifact-1",
  "contractName": "TransactionManager",
  "sourceName": "contracts/Contract.sol",
  "abi": [
    {
      "inputs": [
        {
          "internalType": "string",
          "name": "_transaction_code",
          "type": "string"
        },
        {
          "internalType": "uint256",
          "name": "_amount",
          "type": "uint256"
        },
        {
          "internalType": "string",
          "name": "_direction",
          "type": "string"
        }
      ],
      "name": "createTransaction",
      "outputs": [],
      "stateMutability": "nonpayable",
      "type": "function"
    },
    {
      "inputs": [],
      "name": "getAllTransactions",
      "outputs": [
        {
          "components": [
            {
              "internalType": "string",
              "name": "transaction_code",
              "type": "string"
            },
            {
              "internalType": "uint256",
              "name": "amount",
              "type": "uint256"
            },
            {
              "internalType": "string",
              "name": "direction",
              "type": "string"
            },
            {
              "internalType": "uint256",
              "name": "datetime",
              "type": "uint256"
            }
          ],
          "internalType": "struct TransactionManager.Transaction[]",
          "name": "",
          "type": "tuple[]"
        }
      ],
      "stateMutability": "view",
      "type": "function"
    },
    {
      "inputs": [
        {
          "internalType": "uint256",
          "name": "",
          "type": "uint256"
        }
      ],
      "name": "transactions",
      "outputs": [
        {
          "internalType": "string",
          "name": "transaction_code",
          "type": "string"
        },
        {
          "internalType": "uint256",
          "name": "amount",
          "type": "uint256"
        },
        {
          "internalType": "string",
          "name": "direction",
          "type": "string"
        },
        {
          "internalType": "uint256",
          "name": "datetime",
          "type": "uint256"
        }
      ],
      "stateMutability": "view",
      "type": "function"
    }
  ],
  "bytecode": "0x6080604052348015600f57600080fd5b50610c118061001f6000396000f3fe608060405234801561001057600080fd5b50600436106100415760003560e01c806327506f531461004657806396c85572146100645780639ace38c214610080575b600080fd5b61004e6100b3565b60405161005b9190610602565b60405180910390f35b61007e60048036038101906100799190610799565b61024a565b005b61009a60048036038101906100959190610824565b6102dd565b6040516100aa94939291906108aa565b60405180910390f35b60606000805480602002602001604051908101604052809291908181526020016000905b82821015610241578382906000526020600020906004020160405180608001604052908160008201805461010a9061092c565b80601f01602080910402602001604051908101604052809291908181526020018280546101369061092c565b80156101835780601f1061015857610100808354040283529160200191610183565b820191906000526020600020905b81548152906001019060200180831161016657829003601f168201915b50505050508152602001600182015481526020016002820180546101a69061092c565b80601f01602080910402602001604051908101604052809291908181526020018280546101d29061092c565b801561021f5780601f106101f45761010080835404028352916020019161021f565b820191906000526020600020905b81548152906001019060200180831161020257829003601f168201915b50505050508152602001600382015481525050815260200190600101906100d7565b50505050905090565b6000604051806080016040528085815260200184815260200183815260200142815250908060018154018082558091505060019003906000526020600020906004020160009091909190915060008201518160000190816102ab9190610b09565b506020820151816001015560408201518160020190816102cb9190610b09565b50606082015181600301555050505050565b600081815481106102ed57600080fd5b90600052602060002090600402016000915090508060000180546103109061092c565b80601f016020809104026020016040519081016040528092919081815260200182805461033c9061092c565b80156103895780601f1061035e57610100808354040283529160200191610389565b820191906000526020600020905b81548152906001019060200180831161036c57829003601f168201915b5050505050908060010154908060020180546103a49061092c565b80601f01602080910402602001604051908101604052809291908181526020018280546103d09061092c565b801561041d5780601f106103f25761010080835404028352916020019161041d565b820191906000526020600020905b81548152906001019060200180831161040057829003601f168201915b5050505050908060030154905084565b600081519050919050565b600082825260208201905092915050565b6000819050602082019050919050565b600081519050919050565b600082825260208201905092915050565b60005b83811015610493578082015181840152602081019050610478565b60008484015250505050565b6000601f19601f8301169050919050565b60006104bb82610459565b6104c58185610464565b93506104d5818560208601610475565b6104de8161049f565b840191505092915050565b6000819050919050565b6104fc816104e9565b82525050565b6000608083016000830151848203600086015261051f82826104b0565b915050602083015161053460208601826104f3565b506040830151848203604086015261054c82826104b0565b915050606083015161056160608601826104f3565b508091505092915050565b60006105788383610502565b905092915050565b6000602082019050919050565b60006105988261042d565b6105a28185610438565b9350836020820285016105b485610449565b8060005b858110156105f057848403895281516105d1858261056c565b94506105dc83610580565b925060208a019950506001810190506105b8565b50829750879550505050505092915050565b6000602082019050818103600083015261061c818461058d565b905092915050565b6000604051905090565b600080fd5b600080fd5b600080fd5b600080fd5b7f4e487b7100000000000000000000000000000000000000000000000000000000600052604160045260246000fd5b61067a8261049f565b810181811067ffffffffffffffff8211171561069957610698610642565b5b80604052505050565b60006106ac610624565b90506106b88282610671565b919050565b600067ffffffffffffffff8211156106d8576106d7610642565b5b6106e18261049f565b9050602081019050919050565b82818337600083830152505050565b600061071061070b846106bd565b6106a2565b90508281526020810184848401111561072c5761072b61063d565b5b6107378482856106ee565b509392505050565b600082601f83011261075457610753610638565b5b81356107648482602086016106fd565b91505092915050565b610776816104e9565b811461078157600080fd5b50565b6000813590506107938161076d565b92915050565b6000806000606084860312156107b2576107b161062e565b5b600084013567ffffffffffffffff8111156107d0576107cf610633565b5b6107dc8682870161073f565b93505060206107ed86828701610784565b925050604084013567ffffffffffffffff81111561080e5761080d610633565b5b61081a8682870161073f565b9150509250925092565b60006020828403121561083a5761083961062e565b5b600061084884828501610784565b91505092915050565b600082825260208201905092915050565b600061086d82610459565b6108778185610851565b9350610887818560208601610475565b6108908161049f565b840191505092915050565b6108a4816104e9565b82525050565b600060808201905081810360008301526108c48187610862565b90506108d3602083018661089b565b81810360408301526108e58185610862565b90506108f4606083018461089b565b95945050505050565b7f4e487b7100000000000000000000000000000000000000000000000000000000600052602260045260246000fd5b6000600282049050600182168061094457607f821691505b602082108103610957576109566108fd565b5b50919050565b60008190508160005260206000209050919050565b60006020601f8301049050919050565b600082821b905092915050565b6000600883026109bf7fffffffffffffffffffffffffffffffffffffffffffffffffffffffffffffffff82610982565b6109c98683610982565b95508019841693508086168417925050509392505050565b6000819050919050565b6000610a06610a016109fc846104e9565b6109e1565b6104e9565b9050919050565b6000819050919050565b610a20836109eb565b610a34610a2c82610a0d565b84845461098f565b825550505050565b600090565b610a49610a3c565b610a54818484610a17565b505050565b5b81811015610a7857610a6d600082610a41565b600181019050610a5a565b5050565b601f821115610abd57610a8e8161095d565b610a9784610972565b81016020851015610aa6578190505b610aba610ab285610972565b830182610a59565b50505b505050565b600082821c905092915050565b6000610ae060001984600802610ac2565b1980831691505092915050565b6000610af98383610acf565b9150826002028217905092915050565b610b1282610459565b67ffffffffffffffff811115610b2b57610b2a610642565b5b610b35825461092c565b610b40828285610a7c565b600060209050601f831160018114610b735760008415610b61578287015190505b610b6b8582610aed565b865550610bd3565b601f198416610b818661095d565b60005b82811015610ba957848901518255600182019150602085019450602081019050610b84565b86831015610bc65784890151610bc2601f891682610acf565b8355505b6001600288020188555050505b50505050505056fea2646970667358221220e6b3c8d18473249d1fa2bd3b6f2b147c204a5957bebd9c639182748faee6817a64736f6c634300081c0033",
  "linkReferences": {},
  "deployedLinkReferences": {}
}